S014000041746D65676133325F53444B2E737265631B
S11300000C942A000C9402020C9429020C945002C1
S11300100C94BF030C94E6030C9482040C943404F3
S11300200C945B040C940D040C9471030C949803CD
S11300300C9477020C94A9040C9447000C94D204F9
S11300400C9447000C9447000C9447000C94470010
S11300500C94470011241FBECFE5D8E0DEBFCDBF0E
S113006010E0A0E6B0E0EAEFF9E002C005900D92DE
S1130070AC36B107D9F720E0ACE6B0E001C01D9280
S1130080AA38B207E1F70E947D010C94FB040C949A
S113009000006F927F928F929F92AF92BF92CF9205
S11300A0DF92EF92FF920F931F93CF93DF938C0114
S11300B0E62E40E0DC011B966C911B971A968C91FE
S11300C00E94D701AE2CA694A694A694A694E80107
S11300D021963E01C12CD12C88248394912CB12CDF
S11300E0A4010C2C02C0440F551F0A94E2F74A21C4
S11300F05B210C2C02C0559547950A94E2F7F30155
S11301003197D3016C9180810E94D701BFEFCB1A44
S1130110DB0AE2E06E0E711CF4E0CF16D10401F7A5
S113012040E0D8011B966C911B9718968C910E9405
S1130130D70141E0F801618580850E94D70183EFF2
S113014091E00197F1F700C0000040E0D801199652
S11301506C91199718968C910E94D701E7E8F3E106
S11301603197F1F700C00000A12CB12CCC24C3942A
S1130170D12CF12CA6010A2C02C0440F551F0A945D
S1130180E2F74E215F210A2C02C0559547950A9447
S1130190E2F7FE013197688180810E94D701FFEF69
S11301A0AF1ABF0A229684E0A816B10419F740E0FA
S11301B0D8011B966C911B9718968C910E94D701BD
S11301C041E0F801618580850E94D70183EF91E0C9
S11301D00197F1F700C0000040E0D80119966C9136
S11301E0199718968C910E94D701E7E8F3E13197AB
S11301F0F1F700C00000DF91CF911F910F91FF90A4
S1130200EF90DF90CF90BF90AF909F908F907F90B2
S11302106F900895EF92FF920F931F93CF93DF9304
S11302208C01EC0121967C0189E0E80EF11CFE01B1
S1130230319741E0688180810E94AC012296CE15FD
S1130240DF05A9F741E0F801618580850E94AC01D2
S113025041E0F801638582850E94AC0162E0C80137
S11302600E94490068E2C8010E94490061E0C80197
S11302700E9449006EE0C8010E94490060E8C8017C
S11302800E944900DF91CF911F910F91FF90EF9051
S1130290089580916C0090916D00019690936D008B
S11302A080936C0080E00E946F0380916C009091B9
S11302B06D00069729F440E060E086E30E94D701D0
S11302C080916C0090916D004F9749F441E060E09B
S11302D086E30E94D70110926D0010926C00809109
S11302E06C0090916D00069720F489EF0E946F03D3
S11302F0089586EE0E946F030895CF93DF93CDB7E0
S1130300DEB72F970FB6F894DEBF0FBECDBF8CE0DB
S1130310E0E6F0E0DE01119601900D928A95E1F796
S113032081E08D871E861F86CE0101960E940A01F8
S1130330CE010D960E949E0241E060E086E30E9499
S1130340AC0189EF0E946F0389E491E00E946A0383
S113035081E00E945B03FFCF413081F4683008F5EF
S1130360E82FF0E0218181E090E002C0880F991F1E
S11303706A95E2F7822B818381E00895411113C0CD
S1130380683098F4E82FF0E0218181E090E002C029
S1130390880F991F6A95E2F780958223818381E013
S11303A0089580E0089581E0089580E00895413043
S11303B081F4683008F5E82FF0E0228181E090E0D4
S11303C002C0880F991F6A95E2F7822B828381E02D
S11303D00895411113C0683098F4E82FF0E02281A9
S11303E081E090E002C0880F991F6A95E2F780953A
S11303F08223828381E0089580E0089581E0089556
S113040080E008951F920F920FB60F9211242F933C
S11304103F934F935F936F937F938F939F93AF9388
S1130420BF93EF93FF93E0917200F09173000995ED
S1130430FF91EF91BF91AF919F918F917F916F91B8
S11304405F914F913F912F910F900FBE0F901F908E
S113045018951F920F920FB60F9211242F933F936A
S11304604F935F936F937F938F939F93AF93BF93B8
S1130470EF93FF93E0917000F09171000995FF9163
S1130480EF91BF91AF919F918F917F916F915F9108
S11304904F913F912F910F900FBE0F901F90189581
S11304A01F920F920FB60F9211242F933F934F93E5
S11304B05F936F937F938F939F93AF93BF93EF93C8
S11304C0FF93E0916E00F0916F000995FF91EF9119
S11304D0BF91AF919F918F917F916F915F914F9158
S11304E03F912F910F900FBE0F901F9018951F9260
S11304F00F920FB60F9211242F933F934F935F9354
S11305006F937F938F939F93AF93BF93EF93FF93D7
S1130510E0917400F09175000995FF91EF91BF91FE
S1130520AF919F918F917F916F915F914F913F9187
S11305302F910F900FBE0F901F901895CF93DF93BC
S1130540EC018A81811107C083B78F7B83BF83B796
S1130550877F83BF1AC0813039F483B7806483BF37
S113056083B7877F83BF11C0823039F483B78F7B11
S113057083BF83B7886083BF08C0833031F483B7F7
S1130580806483BF83B7886083BF8981811107C07A
S113059083B78F7E83BF83B78F7D83BF29C08130AC
S11305A061F483B7806183BF83B78F7D83BF41E0EC
S11305B063E086E30E94AC011BC0823061F483B720
S11305C08F7E83BF83B7806283BF41E063E086E3AD
S11305D00E94AC010DC0833059F483B7806183BF9E
S11305E083B7806283BF41E063E086E30E94AC018D
S11305F0888181110AC083B78E7F83BF83B78D7FC3
S113060083BF83B78B7F83BF53C0813051F483B7DB
S1130610816083BF83B78D7F83BF83B78B7F83BFA5
S113062047C0823051F483B78E7F83BF83B7826023
S113063083BF83B78B7F83BF3BC0833051F483B7C1
S1130640816083BF83B7826083BF83B78B7F83BF9F
S11306502FC0843051F483B78E7F83BF83B78D7FDF
S113066083BF83B7846083BF23C0853051F483B7CD
S1130670816083BF83B78D7F83BF83B7846083BF6B
S113068017C0863051F483B78E7F83BF83B78260EF
S113069083BF83B7846083BF0BC0873049F483B7BB
S11306A0816083BF83B7826083BF83B7846083BF65
S11306B0DF91CF9108959FB790689FBF811104C0C7
S11306C089B7826089BF0895813019F489B7816040
S11306D089BF08959093830080938200089582BF18
S11306E008951F920F920FB60F9211242F933F93E8
S11306F04F935F936F937F938F939F93AF93BF9326
S1130700EF93FF93E0918400F09185000995FF91A8
S1130710EF91BF91AF919F918F917F916F915F9175
S11307204F913F912F910F900FBE0F901F901895EE
S11307301F920F920FB60F9211242F933F934F9352
S11307405F936F937F938F939F93AF93BF93EF9335
S1130750FF93E0918200F09183000995FF91EF915E
S1130760BF91AF919F918F917F916F915F914F91C5
S11307703F912F910F900FBE0F901F9018951F92CD
S11307800F920FB60F9211242F933F934F935F93C1
S11307906F937F938F939F93AF93BF93EF93FF9345
S11307A0E0918000F09181000995FF91EF91BF9154
S11307B0AF919F918F917F916F915F914F913F91F5
S11307C02F910F900FBE0F901F9018951F920F92AC
S11307D00FB60F9211242F933F934F935F936F9310
S11307E07F938F939F93AF93BF93EF93FF93E09186
S11307F07E00F0917F000995FF91EF91BF91AF9139
S11308009F918F917F916F915F914F913F912F9124
S11308100F900FBE0F901F9018951F920F920FB656
S11308200F9211242F933F934F935F936F937F9372
S11308308F939F93AF93BF93EF93FF93E0917800CF
S1130840F09179000995FF91EF91BF91AF919F913C
S11308508F917F916F915F914F913F912F910F9065
S11308600FBE0F901F9018951F920F920FB60F9204
S113087011242F933F934F935F936F937F938F93A1
S11308809F93AF93BF93EF93FF93E0917C00F0911C
S11308907D000995FF91EF91BF91AF919F918F9149
S11308A07F916F915F914F913F912F910F900FBE68
S11308B00F901F9018951F920F920FB60F9211244C
S11308C02F933F934F935F936F937F938F939F9354
S11308D0AF93BF93EF93FF93E0917A00F0917B0085
S11308E00995FF91EF91BF91AF919F918F917F9166
S11308F06F915F914F913F912F910F900FBE0F9089
S11309001F9018951F920F920FB60F9211242F93D8
S11309103F934F935F936F937F938F939F93AF9383
S1130920BF93EF93FF93E0917600F09177000995E0
S1130930FF91EF91BF91AF919F918F917F916F91B3
S11309405F914F913F912F910F900FBE0F901F9089
S113095018951F920F920FB60F9211242F933F9365
S11309604F935F936F937F938F939F93AF93BF93B3
S1130970EF93FF93E0918800F0918900309709F09C
S11309800995FF91EF91BF91AF919F918F917F91C5
S11309906F915F914F913F912F910F900FBE0F90E8
S11309A01F9018951F920F920FB60F9211242F9338
S11309B03F934F935F936F937F938F939F93AF93E3
S11309C0BF93EF93FF93E0918600F09187003097F7
S11309D009F00995FF91EF91BF91AF919F918F918C
S11309E07F916F915F914F913F912F910F900FBE27
S10D09F00F901F901895F894FFCFA4
S10F09FA39003901390239033904390588
S9030000FC
